{
  "contractName": "Migrations",
  "abi": [
    {
      "inputs": [],
      "name": "last_complete_migration",
      "outputs": [
        {
          "internalType": "uint256",
          "name": "",
          "type": "uint256"
        }
      ],
      "stateMutability": "view",
      "type": "function"
    },
    {
      "inputs": [],
      "name": "owner",
      "outputs": [
        {
          "internalType": "address",
          "name": "",
          "type": "address"
        }
      ],
      "stateMutability": "view",
      "type": "function"
    },
    {
      "inputs": [
        {
          "internalType": "uint256",
          "name": "completed",
          "type": "uint256"
        }
      ],
      "name": "setComplete",
      "outputs": [],
      "stateMutability": "nonpayable",
      "type": "function"
    }
  ],
  "bytecode": "0x6080604052336000806101000a81548173ffffffffffffffffffffffffffffffffffffffff021916908373ffffffffffffffffffffffffffffffffffffffff16021790555034801561005057600080fd5b50610327806100606000396000f3fe608060405234801561001057600080fd5b50600436106100415760003560e01c8063405147461461004657806389e8491f146100645780638da5cb5b14610080575b600080fd5b61004e61009e565b60405161005b9190610179565b60405180910390f35b61007e600480360381019061007991906101c5565b6100a4565b005b61008861013c565b6040516100959190610233565b60405180910390f35b60015481565b60008054906101000a900473ffffffffffffffffffffffffffffffffffffffff1673ffffffffffffffffffffffffffffffffffffffff163373ffffffffffffffffffffffffffffffffffffffff1614610132576040517f08c379a0000000000000000000000000000000000000000000000000000000008152600401610129906102d1565b60405180910390fd5b8060018190555050565b60008054906101000a900473ffffffffffffffffffffffffffffffffffffffff1681565b6000819050919050565b61017381610160565b82525050565b600060208201905061018e600083018461016a565b92915050565b600080fd5b6101a281610160565b81146101ad57600080fd5b50565b6000813590506101bf81610199565b92915050565b6000602082840312156101db576101da610194565b5b60006101e9848285016101b0565b91505092915050565b600073ffffffffffffffffffffffffffffffffffffffff82169050919050565b600061021d826101f2565b9050919050565b61022d81610212565b82525050565b60006020820190506102486000830184610224565b92915050565b600082825260208201905092915050565b7f546869732066756e6369746f6e206973207265737472696374656420746f207460008201527f686520636f6e74726163742773206f776e657200000000000000000000000000602082015250565b60006102bb60338361024e565b91506102c68261025f565b604082019050919050565b600060208201905081810360008301526102ea816102ae565b905091905056fea264697066735822122014ee34fbcdcb41313c5f12790fc47ba52352c6e9b0449c3327d63e9038db688464736f6c634300080b0033",
  "immutableReferences": {},
  "source": "// SPDX-License-Identifier:MIT\r\npragma solidity >=0.4.22 <0.9.0;\r\n\r\ncontract Migrations{\r\n    address public owner = msg.sender;\r\n    uint public last_complete_migration;\r\n\r\n    modifier restricted(){\r\n        require(\r\n            msg.sender == owner,\r\n            \"This funciton is restricted to the contract's owner\"\r\n        );\r\n        _;\r\n    }\r\n\r\n    function setComplete(uint completed) public restricted{\r\n        last_complete_migration = completed;\r\n    }\r\n}",
  "sourcePath": "C:\\Ks Capital\\Crypto\\Project\\truffle\\contracts\\Migrations.sol",
  "compiler": {
    "name": "solc",
    "version": "0.8.11+commit.d7f03943.Emscripten.clang"
  },
  "schemaVersion": "3.4.15",
  "updatedAt": "2023-08-09T15:43:35.132Z",
  "devdoc": {
    "kind": "dev",
    "methods": {},
    "version": 1
  },
  "userdoc": {
    "kind": "user",
    "methods": {},
    "version": 1
  }
}